:020000040800F2
:10000000000002205D090008F5080008F708000854
:10001000F9080008FB080008FD08000800000000BF
:10002000000000000000000000000000FF080008C1
:100030000109000800000000030900080509000884
:10004000AD090008AD090008AD090008AD090008B8
:10005000AD090008AD090008AD090008AD090008A8
:10006000AD090008AD090008AD090008AD09000898
:10007000AD090008AD090008AD090008AD09000888
:10008000AD090008AD090008AD090008AD09000878
:10009000AD090008AD090008AD090008AD09000868
:1000A000AD090008AD090008AD090008AD09000858
:1000B000AD090008AD090008AD090008AD09000848
:1000C000AD090008AD090008AD090008AD09000838
:1000D000AD090008AD090008AD090008AD09000828
:1000E000AD090008AD090008AD090008AD09000818
:1000F000AD090008AD090008AD090008AD09000808
:10010000AD090008AD090008AD090008AD090008F7
:10011000AD090008AD090008AD090008AD090008E7
:10012000AD090008AD090008AD090008AD090008D7
:10013000AD090008AD090008AD090008AD090008C7
:10014000AD090008AD090008AD090008AD090008B7
:10015000AD090008AD090008AD090008AD090008A7
:10016000AD090008AD090008AD090008AD09000897
:10017000AD090008AD090008AD0900080000000045
:08018000AD090008AD090008FB
:1001900010B5054C237833B9044B13B10448AFF3C1
:1001A00000800123237010BDB80000200000000073
:1001B0005C2C000808B5034B1BB103490348AFF39F
:1001C000008008BD00000000BC0000205C2C00087E
:1001D00004B5190000F005F802BC083000F004F87E
:1001E00000BD47F63003038002230A0F09013032B5
:1001F0003A2A00D30732C25201330A2BF5D1704795
:10020000002909DA00B52D2202700130C1F1000188
:1002100000F002F8013000BD30B54FF00005056078
:10022000456085600D4BA3FB0143DC0822000A23D7
:1002300004FB03F40C1B44F0300444530135114615
:100240000029EFD120B4013D445D425C4255445445
:100250000131013D8D4200D0F6DC31BDCDCCCCCC9E
:1002600001F0FF01102A2BDB10F0070F08D010F867
:10027000013B013A8B422DD010F0070F42B3F6D16B
:10028000F0B441EA012141EA014122F007047FF084
:1002900000070023F0E80256083C85EA010586EADB
:1002A000010685FA47F5A3FA87F586FA47F6A5FA17
:1002B00087F68EB9EED1F0BC01F0FF0102F0070223
:1002C00032B110F8013B013A83EA010313B1F8D1CE
:1002D0000020704701387047002D06BF35460338AF
:1002E000073815F0010F07D1013015F4807F02BFE8
:1002F000013015F4C03F0130F0BC0138704700BF39
:1003000053B94AB9002908BF00281CBF4FF0FF317C
:100310004FF0FF3000F088B9ADF1080C6DE904CE64
:1003200000F006F8DDF804E0DDE9022304B07047D0
:100330002DE9F047089D8E4604468846002B4AD199
:100340008A42174662D9B2FA82F64EB1C6F120034C
:1003500001FA06F820FA03F3B74043EA0808B4406C
:100360004FEA174E1FFA87FCB8FBFEF1230C0EFB79
:10037000118843EA084301FB0CF29A4209D9FB18A1
:1003800001F1FF3080F0EA809A4240F2E7800239C2
:100390003B449A1AA3B2B2FBFEF00EFB102243EAD2
:1003A000024300FB0CFC9C4509D9FB1800F1FF320D
:1003B00080F0D6809C4540F2D3803B44023840EA2E
:1003C0000140A3EB0C0300211DB1F3400022C5E95D
:1003D0000032BDE8F0878B4205D90DB1C5E90001B7
:1003E00000210846F5E7B3FA83F1002946D17345A9
:1003F00002D3824200F20581841A6EEB03020120CF
:100400009046002DE5D0C5E90048E2E7002A00F05B
:100410009080B2FA82F6002E40F0A4808A1A030C73
:100420004FEA174E80B2BCB20121B2FBFEFC0EFBBC
:100430001C2243EA024304FB0CF29A4207D9FB1840
:100440000CF1FF3802D29A4200F2E080C4469B1AB7
:10045000B3FBFEF20EFB123340EA034302FB04F44B
:100460009C4207D9FB1802F1FF3002D29C4200F2F5
:10047000CA8002461B1B42EA0C40A5E7C1F12006D8
:100480008B4022FA06F71F430EFA01F420FA06F316
:100490002EFA06FE4FEA1749234300FA01F81FFA25
:1004A00087FCBEFBF9F01C0C09FB10EE44EA0E447D
:1004B00000FB0CFEA64502FA01F209D93C1900F135
:1004C000FF3A80F09C80A64540F2998002383C4477
:1004D000A4EB0E041FFA83FEB4FBF9F309FB1344EB
:1004E0004EEA044403FB0CFCA44508D93C1903F173
:1004F000FF3E80F08280A4457FD9023B3C4443EA22
:100500000040A4EB0C04A0FB02EC64457346E146FA
:1005100062D35FD05DB1B8EB030264EB090404FA67
:1005200006F622FA01F31E43CC40C5E9006400211F
:100530004FE7B1FBF2FC010C41EA0E4180B240EA08
:1005400001423B4638463C46B846BE462026B1FBF3
:10055000F7F1A2EB080241EA0C4166E7014618E711
:1005600010462CE7C6F120022EFA02F3B740B14044
:1005700020FA02F24FEA174E0A43B3FBFEF8BCB270
:100580000EFB1833110C41EA034108FB04F9B0409B
:1005900089454FEA104380B23ED9791808F1FF3CF3
:1005A00001D289451FD8A1EB0901B1FBFEF909FB76
:1005B00004F80EFB191192B242EA0142424529D2D7
:1005C000BA1809F1FF31C4D24245C2D2A9F10201E1
:1005D0003A44BEE7F0459DD2BEEB02036CEB070C3C
:1005E0000138E14696E7A7EB09094944A8F1020C56
:1005F000B1FBFEF909FB04F8DBE773467FE75046E1
:1006000066E70846FDE63B44023A33E7ACF1020CEC
:100610003B441CE749469CE7A1EB0901C446B1FBFA
:10062000FEF909FB04F8C4E7704700BF10B594B0A9
:100630001422002109A801F093FE1422002103A82E
:1006400001F08EFE00231F4A0193116C41F080518E
:100650001164126C02F080520192019A1A4A0293BC
:10066000116841F4804111601268022402F4804252
:100670000820CDE90E430292A823CDE91003029A87
:10068000089401211022042308A8CDE90B1212942A
:10069000139300F02DFB08B172B6FEE70F23CDE9EE
:1006A000033405904FF4A0524FF48053052103A862
:1006B000CDE9062300F0F8FC08B172B6FEE714B0ED
:1006C00010BD00BF003802400070004080B592B0FD
:1006D00000F092F9FFF7AAFF142200210BA801F005
:1006E0003FFE0024554B00941A6B554842F010020F
:1006F0001A631A6B02F010020092009A01941A6BAE
:1007000042F001021A631A6B02F001020192019A8F
:1007100002941A6B42F002021A631A6B02F0020290
:100720000292029A03941A6B42F008021A631B6B3E
:1007300003F00803039301220521039B00F0D2FA82
:1007400022463F48022100F0CDFA22463D480221D0
:1007500000F0C8FA05263B480D940BA90125CDE908
:100760000B6400F0E1F938480D940BA9CDE90B5466
:1007700000F0DAF932480BA9CDE90B65CDE90D445B
:100780004FF0020800F0D0F903272D480D940BA973
:10079000CDE90B850E9700F0C7F9CDE90B85294807
:1007A00010250BA9CDE90D4700F0BEF921462A46D8
:1007B00007A801F0D5FD21462A460EA801F0D0FD7C
:1007C000224808954FF02043036003F58273C0E987
:1007D00001344FF48053C0E90A343C224FF4804383
:1007E000C0E90C3406920F2311220421CDE90B132A
:1007F000CDE90F5209920DEB05010BAAC0E90344A4
:10080000C0E90554C0E90744446284634464CDE907
:1008100004330D9600F0E2FC044608B172B6FEE720
:1008200001F040F8204601F001F84FF4714000F06B
:10083000E9FF01F021FC01F0EDFCFEE70038024089
:10084000000402400010024000000240E4000020CA
:1008500082B00C4B002100915A6C42F480425A64E1
:100860005A6C02F480420092009A01911A6C42F094
:1008700080521A641B6C03F080530193019B02B0F9
:10088000704700BF00380240F0B587B000230393E3
:10089000144B1C6824BB01221A60134B00949A6B02
:1008A000124842F001029A639B6B03F0010300932C
:1008B000009B02274FF6807303260C2501A9CDE982
:1008C0000137CDE9046500F02FF94EF2B373084803
:1008D000059501A9CDE90137CDE9034600F024F9DA
:1008E00007B0F0BD34010020003802400010024083
:1008F000000C0240FEE7FEE7FEE7FEE7FEE770477A
:100900007047704700F092B80B4A116810B5034663
:1009100009B90A491160106809490A4C0344091BC6
:100920008B4206D901F024FD0C2303604FF0FF3009
:1009300010BD1360FCE700BF38010020A0030020B9
:100940000000022000040000034AD2F8883043F47B
:100950007003C2F88830704700ED00E0DFF834D053
:10096000FFF7F2FF0C480D490D4A002302E0D4586E
:10097000C4500433C4188C42F9D30A4A0A4C0023E9
:1009800001E013600432A242FBD301F0F7FCFFF751
:100990009DFE70470000022000000020B8000020EB
:1009A000184D0008B80000209C030020FEE700005E
:1009B00038B50E4B1A784FF47A73B3FBF2F30C4A46
:1009C00005461068B0FBF3F000F09AF8044658B9F9
:1009D0000F2D09D8024629464FF0FF3000F05EF88F
:1009E000044B20461D6038BD0120FCE704000020B8
:1009F000000000200800002008B50B4B1A6842F4E4
:100A000000721A601A6842F480621A601A6842F42E
:100A100080721A60032000F02FF80F20FFF7C8FF44
:100A2000FFF716FF002008BD003C0240034A044BBC
:100A300011681B780B441360704700BF3C01002015
:100A400004000020014B1868704700BF3C010020E3
:100A500038B50446FFF7F6FF631C1CBF054B1B7837
:100A6000054618BFE418FFF7EDFF431BA342FAD376
:100A700038BD00BF040000200749CA6822F4E062C4
:100A80000302120403F4E063120C134343F0BF6348
:100A900043F40033CB60704700ED00E0164B30B5F7
:100AA000DC68C4F30224C4F10703251D042B28BF0E
:100AB0000423062D4FF0FF358CBF033C002405FABC
:100AC00003F321EA0303A54022EA0502A34000281C
:100AD00043EA0203ACBF00F16040084A4FEA031347
:100AE000B8BF00F00F00DBB2AABF00F5614013549D
:100AF00080F8003330BD00BF00ED00E014ED00E0F1
:100B00000138B0F1807F0BD24FF0E023054A5861E5
:100B1000F02182F823100020072298611A617047A3
:100B20000120704700ED00E02DE9F74FDFF8A491B8
:100B3000664A00230D6801249C4004EA0506AC4384
:100B400040F0AF804D68032705F003044FEA4308E7
:100B500007FA08FC671E012F6FEA0C0C34D887686F
:100B600007EA0C0ECF6807FA08F747EA0E07876016
:100B7000476827EA060EC5F300179F4047EA0E07AD
:100B80004760C76807EA0C0E8F6807FA08F747EA5C
:100B90000E07022CC76019D14FEAD30A00EB8A0A6C
:100BA00003F0070BDAF820704FEA8B0B4FF00F0EB3
:100BB0000EFA0BFE27EA0E0E0F6907FA0BF747EA4B
:100BC0000E07CAF8207001E0032CDAD1076804FA96
:100BD00008F407EA0C073C4315F4403F046060D07A
:100BE00000240194D9F8444044F48044C9F84440B6
:100BF000D9F8444023F0030707F1804704F4804408
:100C000007F59C37019403F0030C019CD7F808E02A
:100C10004FEA8C0C0F2404FA0CF42EEA040E2C4C30
:100C2000A04245D004F58064A04243D004F580641E
:100C3000A04241D004F58064A0423FD004F5806416
:100C4000A0423DD004F58064A0423BD004F580640E
:100C5000A04239D004F58064A04214BF08240724C0
:100C600004FA0CF444EA0E04BC609468F74315F4EB
:100C7000801F0CBF3C4034439460D46815F4001FBF
:100C80000CBF3C403443D460546815F4003F0CBFA3
:100C90003C40344354601468ED0354BF3C4034433B
:100CA00014600133102B7FF445AF03B0BDE8F08F23
:100CB0000024D5E70124D3E70224D1E70324CFE7BA
:100CC0000424CDE70524CBE70624C9E7003C014016
:100CD00000000240003802400369194214BF01209D
:100CE000002070470AB1816170470904FBE70000EA
:100CF0002DE9F341044640B30368DE0710D42368AE
:100D00009D075BD42368190700F19D8023685A076B
:100D100000F1BD80A369002B40F0248100202CE06D
:100D20008D4B9A6802F00C02042A07D09A6802F0F0
:100D30000C02082A0BD15B68590208D5864B1B6848
:100D40009A03DCD56368002BD9D1012015E06368D4
:100D5000814DB3F5803F13D12B6843F480332B6072
:100D6000FFF770FE7C4E054633689B03C7D4FFF740
:100D700069FE401B6428F7D9032002B0BDE8F0816A
:100D8000B3F5A02F04D12B6843F480232B60E3E755
:100D90002A6822F480322A602A6822F480222A609B
:100DA000002BDDD1FFF74EFE06462B689F03A6D52C
:100DB000FFF748FE801B6428F7D9DDE7664B9A6889
:100DC00012F00C0F07D09A6802F00C02082A11D119
:100DD0005B685D020ED4604A1368990702D5E36828
:100DE000012BB2D11368216923F0F80343EAC10350
:100DF000136087E7E268594BB2B101221A60FFF72E
:100E000021FE554D06462B689B0707D52B682269A6
:100E100023F0F80343EAC2032B6073E7FFF712FEE7
:100E2000801B0228EFD9A7E71A60FFF70BFE4A4E96
:100E3000054633689F077FF565AFFFF703FE401B4C
:100E40000228F6D998E76269444B82B10122C3F8BF
:100E5000802EFFF7F7FD404E0546736F9B073FF569
:100E600055AFFFF7EFFD401B0228F6D984E7C3F822
:100E7000802EFFF7E7FD384E0546736F9F077FF51D
:100E800045AFFFF7DFFD401B0228F6D974E7324B70
:100E90001A6C12F0805228D101921A6C42F08052E2
:100EA0001A641B6C03F080530193019B01272C4DA6
:100EB0002B68D8051BD5A368274D012B27D12B6F95
:100EC00043F001032B67FFF7BDFD234E054641F2BA
:100ED0008838336F9A0739D5002F3FF41BAF1E4A6D
:100EE000136C23F08053136414E70027DFE72B68AB
:100EF00043F480732B60FFF7A5FD06462B68D905E8
:100F0000D9D4FFF79FFD801B0228F7D934E7052BC2
:100F100004D12B6F43F004032B67D0E72A6F22F034
:100F200001022A672A6F22F004022A67002BCAD125
:100F3000FFF788FD41F2883806462B6F9B07CBD51B
:100F4000FFF780FD801B4045F7D915E7FFF77AFDD5
:100F5000401B4045BDD90FE7003802400000474222
:100F600000700040374DAA6802F00C02082A3ED0FB
:100F7000022B354B4FF000021A662BD1FFF762FDB2
:100F800006462B6899011FD4D4E907321343626ADD
:100F900043EA8213E26A43EA0263A26A5208013A10
:100FA00043EA02436B60284B264D01221A66FFF785
:100FB00049FD04462B689A013FF5B0AEFFF742FDAC
:100FC000001B0228F6D9D7E6FFF73CFD801B02285C
:100FD000D7D9D1E6FFF736FD04462B689B017FF594
:100FE0009DAEFFF72FFD001B0228F6D9C4E6012BAA
:100FF0003FF4ABAE6B68E26903F4800191427FF489
:10100000A4AE216A03F03F028A427FF49EAE616A79
:1010100047F6C0721A40B2EB811F7FF496AEA26A07
:10102000520803F44031013AB1EB024F7FF48DAE28
:10103000E26A03F07063B3EB026F14BF012000207B
:101040009BE600BF0038024000004742134908B544
:101050008B6803F00C03042B1CD0082B1CD14A68AE
:101060004B68496813F4800314BF0D480D48C1F361
:10107000881118BF002302F03F02A1FB0001FFF717
:101080003FF9064B5B68C3F3014301335B00B0FBE0
:10109000F3F008BD0248FCE70248FAE700380240D6
:1010A00040787D010024F4002DE9F0410D4604460E
:1010B00010B90120BDE8F081434B1A6802F0070225
:1010C0008A4228D321688F072DD4C80740D43E4BCD
:1010D0001A6802F00702AA4265D8226851076BD449
:1010E000130707D5394A2169936823F4604343EA1B
:1010F000C1039360FFF7AAFF344B354A9B68C3F3E3
:101100000313D35CD840334B1860334B1868FFF798
:101110004FFC0020CEE7CAB21A701B6803F0070329
:101120008B42C6D1CEE7294B11F0040F1EBF9A683F
:1011300042F4E0529A600E0742BF9A6842F460425D
:101140009A609A68A06822F0F00202439A60BCE7B5
:1011500062681E4B012A1CD11B6813F4003FA8D003
:101160001A4EB36823F003031343B360FFF76AFC1E
:1011700041F288380746B368626803F00C03B3EBAA
:10118000820FA4D0FFF75EFCC01B4045F3D90320BB
:1011900090E7911E01291B6802D813F0007FDEE75B
:1011A00013F0020FDBE7EAB21A701B6803F00703C3
:1011B000AB427FF47EAF90E70449E0688B6823F48C
:1011C000E05303438B608BE7003C02400038024051
:1011D000742C0008000000200800002070B50E46A6
:1011E0001546044628B390F8493003F0FF021BB9B6
:1011F00080F84820FFF748FB04F10801206800F060
:101200001BF8A2682068314600F048F8236BA268FA
:101210006068294600F05CF82268A16852F8213025
:1012200043F0010342F82130012384F849300020C3
:1012300070BD0120FCE700000A6850F8223023F05E
:10124000010370B58C6840F822304B68CE6850F8C6
:101250002250234333430E6933434E693343CE69EF
:1012600033430E6A33434E6A33438E6A3343CE6A46
:1012700033430E6B33438E69C96B33430B430649CB
:1012800029400B43A4F108014C424C4143EA84132A
:1012900040F82230002070BD8000F0FF0B6810B5D0
:1012A0008C6923434C6843EA04138C6843EA0423A3
:1012B000CC6843EA04430C694969013C013243EAC2
:1012C0000453023943EA016340F82230002010BD84
:1012D000B3F5804F30B514D18D690B6850F82240BA
:1012E0002B434D6843EA05138D68C96843EA05231B
:1012F00043EA0143044921400B4340F822300020D7
:1013000030BD6FF07043F8E70000F0CFF8B5044649
:1013100094420D46194638BF134610463CBF20463E
:101320001C468D423EBF0B4629461D466B1C221AA9
:101330005B1A02FB03362B462246BDF8187000F0FC
:101340002FFA044A0023B34200D1F8BD17800133BD
:10135000F9E700BF000008602DE9F74FBDF83050F5
:10136000AA428146174608461C4609D12B4622460A
:101370003946CDF8309003B0BDE8F04FFFF7C6BF57
:101380009942F3D0A5EB020AA3EB010BBAF1000FCF
:10139000B8BFCAF1000ABBF1000FB8BFCBF1000B18
:1013A000DA4504DC2B460F46254610461C46AF4264
:1013B00005D82346044618462B463D461F46031BC8
:1013C00083EAE3727E1BA2EBE37206EBD6788442DB
:1013D00034BF01234FF0FF3300924FEA68080193B6
:1013E000BD4202D903B0BDE8F08FDA45CBBF20463D
:1013F0002146294628464A4600F0ECF9009BB8EB06
:10140000030848BF019B05F1010542BFE418A4B2DF
:10141000B044ADB2E4E713B5013A12FA81F21C46CA
:1014200092B283B2009220468AB21946FFF794FF27
:1014300002B010BD2DE9F04F144692B2C2F1010581
:10144000C2EBC23287B0520012B20392BDF9402003
:10145000BDF844B0013292B200928AB20192914634
:10146000DDF8008003F0010203F0020382462DB292
:10147000002704920593A74202DB07B0BDE8F08F76
:10148000002D58DB039B02331AB2661E15FA83F354
:1014900036B203921DB20137BBB205EB43053FB232
:1014A0000135BE4202932DB221DB049B73B1009B38
:1014B000B1B203EB4102019B591A029B03EB0A00F4
:1014C00012B25B4609B200B2FFF7A5FF059B73B1EC
:1014D000009BB1B203EB4102019B591A029BAAEB9C
:1014E000030012B25B4609B200B2FFF794FFA642B6
:1014F00017D0049B4BB10AEB04005B460FFA88F24D
:101500000FFA89F100B2FFF786FF059B4BB1AAEBFA
:1015100004005B460FFA88F20FFA89F100B2FFF778
:101520007AFF09F1FF3908F102081FFA89F91FFA59
:1015300088F834469FE72646ADE7F7B50C4691B2EA
:1015400015464A000132611A12B209B21F46064618
:10155000FFF761FF00230093019703232A462146EA
:101560003046FFF767FF03B0F0BD37B514461D46A0
:10157000631E8AB213FA80F381B200929BB22846AE
:10158000FFF7EAFE03B030BD2DE9F04F87B00E46FD
:101590000093BDF840300193304B198888421EDA21
:1015A0005B889E421BDADFF8B890D9F808108C8867
:1015B000C44214D4CD88F54211D4A2F1200384B2E0
:1015C000049304F10803C5F3C7054FF00008059321
:1015D000D9F80810C9885FFA88F2914238D807B064
:1015E000BDE8F08F049B39685FFA88F00CFB0300BC
:1015F000059B05FB001110191A4493B211F80A70EB
:1016000003931FFA80FB3B061CD5009A02995846AB
:1016100000F0E0F8039B0BF101001FFA80FB7F0054
:101620009B45FFB2EFD10AF1010A5FFA8AF1D9F8BE
:101630000870CA008D42B7F806C0D2B2D2D808F1FD
:101640000108C5E7DDE900239342E3D01A46DDE750
:10165000324493B24FF0000A0293E6E72C000020D8
:101660000C0000200FB4F0B585B00AAA244852F847
:10167000041B039200F06AFE214E224C224F16F802
:10168000012B22B905B0BDE8F04004B070470A2A2A
:10169000618807D11D4B9B68DB881944618000235A
:1016A00023800AE00D2A08D0092A2088174D0BD183
:1016B000AB689B8800EB830020807B8862889A421D
:1016C00024BF00236380DAE7AB8800932B8800B245
:1016D00009B2FFF759FFA8682388B0F804C02A7B35
:1016E00063449BB22380002AE7D039886288A1EB4B
:1016F0000C018B42E1DDC38813446380CFE700BF58
:1017000040010020400200202C0000200C0000209E
:10171000014B9860704700BF0C000020014B18601F
:10172000704700BF0C000020014B1888704700BFB5
:101730000C00002013B5064C013B013A24880094AC
:101740000B4402449BB292B2FFF7E0FD02B010BD21
:101750000C000020034B12B21B8809B200B2FFF745
:1017600004BF00BF0C000020034B12B21B8809B25B
:1017700000B2FFF750BE00BF0C000020014B1B88D9
:10178000FFF7DBBE0C000020014BC3E900017047EE
:101790000C000020014B1880598070474002002047
:1017A00070B54FF0C0452A242C80094C060A2680CB
:1017B0002080100A208022802B222A800A0A228080
:1017C0001A0A2180228023802C232B8070BD00BF29
:1017D0000000086030B54FF0C0442A232380084B36
:1017E000050A1D8018801D8018802B202080080A83
:1017F00018801980188019802C2121801A8030BD12
:1018000000000860074A00215388128810B504467A
:101810000846FFF7C5FF044A4FF49633013B148096
:10182000FCD110BD2C00002000000860082828BF53
:101830000020164A164B125C042810B535BFF02163
:101840004FF4A0714FF4A074F024DA711C80187169
:1018500059804FF0C0433621198010F0030003F582
:1018600000230C4C1A8018BF022020700A480CBFBD
:1018700002210021017009490CBF042207220A70CD
:10188000074A0CBF07230423137010BDB04B000898
:101890002C000020470200204602002045020020C4
:1018A00044020020F8B54FF0C04601203080FFF719
:1018B000CFF8134D134F00242B5D63B90420FFF7BD
:1018C000B5FF1F20FFF79EFF0122BDE8F8400E483C
:1018D0001146FFF707BA3380631C0234E85C0F2817
:1018E00002D9FFF7B5F8E7E70028E5D02B4400223E
:1018F000013213F8011F39809042F9D80444DBE724
:10190000B84B00080000086000040240F8B5184F0A
:10191000184E0446082523064CBF012200223846F3
:101920000221FFF7DFF96400002202213046FFF7B1
:10193000D9F9E4B200BF00BF00BF00BF00BF00BFC5
:1019400000BF00BF00BF00BF00BF00BF00BF01223B
:1019500002213046FFF7C6F900BF00BF00BF00BF3D
:1019600000BF00BF00BF00BF00BF013DD3D1F8BD25
:10197000001002400004024010B5074C042120462C
:10198000FFF7AAF90028F9D0044C01212046FFF7FF
:10199000A3F90128F9D010BD001002400000024058
:1019A00070B56420FFF754F8074D084E042128460F
:1019B000FFF792F9012104463046FFF78DF901281F
:1019C00001D0002CF2D170BD001002400000024096
:1019D00008B56420FFF73CF8FFF7E2FF3220FFF77D
:1019E00037F8FFF7C9FFBDE808403220FFF730B8ED
:1019F00008B50948FFF78CFE05210846FFF7CAFE27
:101A00000648FFF72FFE05201421FFF7C3FEBDE8AF
:101A100008400348FFF726BE1C0000202A4C00089F
:101A20003C4C000838B5044600200D46FFF7EAFE9E
:101A300032211420FFF7AEFE0A48FFF713FE2846B6
:101A4000094DFFF70FFE21462846FEF7CAFB642129
:101A50001420FFF79FFE2846FFF704FEBDE838403C
:101A6000FFF7B6BF444C0008D400002038B5002171
:101A70004FF6FF70FFF788FE1F48204C204DFFF700
:101A800047FE0020FFF7BEFE32211420FFF782FE42
:101A90001C48FFF7E7FD64211420FFF77BFE214679
:101AA0002846FEF79EFB2846FFF7DCFDFFF764FFA4
:101AB000FFF78EFF20681449FFF7B4FF60681349F1
:101AC000FFF7B0FFA0681249FFF7ACFFE0681149CB
:101AD000FFF7A8FF20691049FFF7A4FF60690F49CD
:101AE000FFF7A0FFA0690E49FFF79CFFBDE8384053
:101AF0000020FFF787BE00BF240000204C0000201C
:101B0000D40000204C4C00085C4C00085F4C0008DE
:101B1000624C0008654C0008684C00086B4C0008DB
:101B20006E4C000808B50020FFF76CFE5348FFF725
:101B3000EFFD4FF6FF70FFF7F1FD4FF47840FFF730
:101B4000EDFD1E231A46C8210520FFF7F3FD1F20D7
:101B5000FFF7E4FD1E231A46C8212820FFF7EAFDFF
:101B60004FF4FC60FFF7DAFD1E231A46C8214B2014
:101B7000FFF7E0FD4FF6FF70FFF7D0FD1E231A467A
:101B8000C8216E20FFF7D6FD4FF61F00FFF7C6FDF8
:101B90001E231A46C8219120FFF7CCFD4FF6205096
:101BA000FFF7BCFD1E231A46C821B420FFF7C2FD73
:101BB00040F2FF70FFF7B2FD1E231A46C821D7205E
:101BC000FFF7B8FD4FF6E070FFF7A8FD1E231A4699
:101BD000C821FA20FFF7AEFD4FF6FF70FFF79EFD1C
:101BE0002748FFF795FDCD214FF49170FFF7D2FD07
:101BF0002448FFF737FD4FF4A072C4210020FFF7FF
:101C0000A9FD2322C6210120FFF7AEFD2322C62114
:101C10002520FFF7A9FD2322C6214820FFF7A4FDB8
:101C20002322C6216B20FFF79FFD2322C6218E2091
:101C3000FFF79AFD2322C621B120FFF795FD23224D
:101C4000C621D420FFF790FD2322C621F720FFF7FD
:101C50008BFD2322C6214FF48D70FFF785FD2322D3
:101C6000C62140F23D10FFF77FFDBDE808404FF46C
:101C7000A072E8210120FFF76DBD00BF1C0000200D
:101C800024000020764C0008064B00221A615A629C
:101C9000D8621A6101221A601A69D207FCD50022A3
:101CA0001A60704700080040F8B5104E104F0D251F
:101CB0000024002202213046FFF714F80120FFF72C
:101CC000E3FF640001463846A4B2FFF705F808B107
:101CD00044F00104012202213046013DFFF702F8E1
:101CE00015F0FF05E5D12046F8BD00BF0004024015
:101CF0000010024038B50C4D002204212846FEF7A2
:101D0000F1FF0120FFF7C0FF9020FFF7FFFD01204A
:101D1000FFF7BAFFFFF7C8FF012204460421284657
:101D2000FEF7E0FF204638BD0004024038B50C4DF8
:101D3000002204212846FEF7D5FF0120FFF7A4FF6B
:101D4000D020FFF7E3FD0120FFF79EFFFFF7ACFF78
:101D50000122044604212846FEF7C4FF204638BD70
:101D60000004024070B50C460546FFF7C3FF064667
:101D70000120FFF789FFFFF7D9FF2E60206070BDBB
:101D800070B504460EB20D380D464FF6FF7331465E
:101D90000A2200B2FFF7E9FB201D31464FF6FF7320
:101DA0000A2200B2FFF7E1FB24B2A5F10D012046A3
:101DB0004FF6FF730A2209B2FFF72DFB291D2046BB
:101DC0004FF6FF73BDE870400A2209B2FFF723BB4C
:101DD000F0B595B04822002102A800F0C1FA584B96
:101DE0001A787AB90121197056490B6C43F0040333
:101DF0000B64BFF34F8F544B1A60A7229A624FF6C1
:101E0000FF72DA62514E02AD002401A96846FFF765
:101E1000A9FF009B45F8043B019B2B620134042180
:101E20003046E4B2FEF758FF002867D1092CECD108
:101E3000DDE902531D44049B1D44DDE905321344D2
:101E4000079A1344DDE9082002440A98032102445A
:101E500095FBF1F593FBF1F3E81A002892FBF1F200
:101E6000A3EB0201A2EB0504B8BF40420029B8BFB2
:101E70004942002CB8BF6442022844DD02294CDDEF
:101E8000022C3DDC2A4402EBD272C2F34F03DDE99F
:101E90000B4214440D9A2E481444DDE90E121144ED
:101EA000109A03801144DDE911263244139E032564
:101EB000324494FBF5F491FBF5F1661A002E92FB87
:101EC000F5F2A1EB0205A2EB0407B8BF7642002DA4
:101ED000B8BF6D42002FB8BF7F42022E21DD022D18
:101EE00029DD022F0CDC224402EBD272C2F34F0236
:101EF0009B08920803804280154802E0092C97D085
:101F0000002015B0F0BD884207DAA042BADC2B44AD
:101F100003EBD373C3F34F03B9E7A142B2DC13441D
:101F2000F6E7AE4207DABE42DDDC214401EBD171B7
:101F3000C1F34F02DCE7BD42D5DC1144F6E700BF38
:101F40004C0200200038024000080040001002400F
:101F5000480200202DE9F04FB1F800C00F89B1F818
:101F60000AE0B1F806A08C88B1F802B085B0ACEBFD
:101F700007030093AAEB0E030193E31B0293DDE931
:101F800000310546ABEB0E0801FB03F0E31B08FB39
:101F90001300906100284FD02B880293B5F804906D
:101FA0002B890299C81AA9EB030106460391014641
:101FB00001984143039800FB1811116000994843B0
:101FC000E11B06FB110050600299019E09FB07F01E
:101FD00003FB140003FB0CF301FB17330AFB03F3B1
:101FE000614309FB1C110BFB00330EFB01336888B6
:101FF00093606B89E988A0EB0309CD1A09FB06F60B
:1020000005FB1866D660009E7543E61B09FB165556
:10201000156101FB07F503FB145503FB0CF300FBF3
:10202000173344430AFB03F30BFB053301FB1C444A
:102030000EFB04335361012005B0BDE8F08FF0B50D
:1020400005469069B8B1D2E900644B880F885C43BB
:1020500006FB07449668344494FBF0F42C80D2E9E4
:10206000034609885269734304FB0133134493FB0D
:10207000F0F301206B80F0BD2DE9F84F0022042120
:102080005648574F574EDFF88891DFF87C81FEF7AE
:1020900029FE0A20FEF7DCFC504801220421FEF74D
:1020A00021FE0A20FEF7D4FC0025AA464846FFF789
:1020B0002FFB0020FFF7A6FB00214FF6FF70FFF774
:1020C00063FB05210846FFF765FB4748FFF7CAFA9F
:1020D0004648FFF71DFB5F210020FFF75BFB4448EC
:1020E000FFF7C0FA1420FEF7B3FC79883888FFF7B1
:1020F00047FEFEF7A7FC4FF0000B044604214046C4
:10210000FEF7EAFD002858D14FF4FA60FEF7A0FC74
:10211000FFF75EFE04460028FAD003883380438828
:1021200073800020FFF76EFB21883248FEF774F8B9
:102130002E48FFF7EDFA46210020FFF72BFB2E4833
:10214000FFF790FA2B48FFF78DFA2C48FFF78AFA31
:1021500061882848FEF760F82648FFF783FA0135C2
:10216000FFF70AFC2648FFF77DFAFFF719FCFFF797
:1021700003FC032D07F1040706F104064FF0010AE2
:1021800094D1204A17491648FFF7E4FE0020FFF7D4
:1021900039FB4FF47A70FEF75BFC04211A48FEF716
:1021A0009BFD514604461948FEF796FD504500D068
:1021B0008CB9BDE8F84FFFF759BCBAF1000F9DD1BB
:1021C000FEF740FCA042FBD00BF1010BBBF5167FE4
:1021D00001D8044692E7BDE8F88F00BF0004024032
:1021E0003400002040000020784C0008240000202B
:1021F0009D4C0008D4000020AC4C0008B64C0008F0
:10220000C14C00084C0000200010024000000240B9
:102210001C000020F8B5FFF785FCFFF7E9FB3C4EFA
:102220003C4C3D4F01213046FEF756FD012805D1BB
:10223000FFF71CFCFFF776FCFFF7DAFBFFF7C8FDA2
:102240003A4601463348FFF7FAFE61888B1EBB2BE6
:102250000AD82088831EB3F59E7FE3D2022209B2FA
:1022600000B2FFF78BFADDE7BE392829DAD82388D8
:10227000A3F1B4021E2A04D84FF62050FFF74EFAFD
:10228000D0E7A3F1D7021E2A02D840F2FF70F5E78B
:10229000A3F1FA021E2A02D84FF6E070EEE75A1FA9
:1022A0001E2A02D84FF47840E8E7A3F128021E2A3C
:1022B00001D81F20E2E7A3F14B021E2A02D84FF4F7
:1022C000FC60DBE7A3F16E021E2A02D84FF6FF7016
:1022D000D4E7A3F191021E2A02D84FF61F00CDE7E2
:1022E0006FF48E7213441E2B9CD8FFF71DFA05461F
:1022F000FFF718FC2846FFF711FA084D042128467D
:10230000FEF7EAFC0028F9D03220FEF7A1FB89E7AE
:10231000000002404E0200204C000020001002404D
:1023200010B59AB00024009104916FF0004105911E
:102330000291054903916946199400F099F9009BAF
:102340001C701AB010BD00BF0802FFFF13460A46FA
:10235000014602480068FFF7E3BF00BF68000020A5
:1023600002440346934200D1704703F8011BF9E78A
:10237000014B1868704700BF6800002070B50D4D14
:102380000D4C641BA4100026A64209D10B4D0C4C29
:1023900000F064FC641BA4100026A64205D170BDA9
:1023A00055F8043B98470136EEE755F8043B98474B
:1023B0000136F2E7104D0008104D0008104D0008DE
:1023C000144D00087047704738B50546002941D0C4
:1023D00051F8043C0C1F002BB8BFE41800F0E0F8E3
:1023E0001D4A136833B9636014602846BDE838405D
:1023F00000F0DCB8A34208D9206821188B4201BF45
:1024000019685B6809182160EDE71A465B680BB133
:10241000A342FAD911685018A0420BD12068014498
:10242000501883421160E0D118685B68536008441B
:102430001060DAE702D90C232B60D6E72068211858
:102440008B4204BF19685B68636004BF0918216090
:102450005460CAE738BD00BF9803002070B50F4E26
:102460000C463168054611B900F0A4FB30602146E6
:10247000284600F09FFB431C03D14FF0FF34204659
:1024800070BDC41C24F00304A042F8D0211A2846D1
:1024900000F090FB0130F2D1EFE700BF9403002081
:1024A0002DE9F843CD1C25F0030508350C2D38BF68
:1024B0000C25002D064601DBA94204D90C2333600C
:1024C0000020BDE8F883DFF8D48000F069F8D8F880
:1024D00000301C4644BB29463046FFF7BFFF431C73
:1024E000044658D1D8F800402746002F43D1002C8D
:1024F0004BD023683946304604EB030900F05AFB01
:10250000814542D121686D1A29463046FFF7A6FF62
:1025100001303AD023682B442360D8F800305A6841
:1025200062BBC8F800700FE02268521B20D40B2A4F
:1025300017D96119A342256018BF5960636808BFA5
:10254000C8F8001062514B60304600F02FF804F1DB
:102550000B00231D20F00700C21A1CBF1B1AA3503A
:10256000AFE76268A3420CBFC8F800205A60EBE7EF
:1025700023466468AEE73C467F68B6E71A465B6868
:10258000A342FBD100235360DEE70C2333603046C7
:1025900000F00CF894E70560D6E700BF9803002030
:1025A0000148FFF70FBF00BF900300200148FFF76D
:1025B0000ABF00BF900300202DE9F0478E681F4638
:1025C000BE420B6882460C4690462DD8B1F90C20CD
:1025D00012F4906F26D06569096905EB4505A3EBF8
:1025E000010905EBD5757B1C4B446D109D4238BF2E
:1025F0001D46530527D52946FFF752FF064660B30F
:1026000021694A4600F0E6FAA38923F4906343F077
:102610008003A381266165614E44A5EB0905266010
:10262000A5603E46BE4200D93E462068324641463D
:1026300000F0A6FAA3689B1BA360236833442360C1
:102640000020BDE8F0872A4600F0D2FA06460028AE
:10265000E0D121695046FFF7B7FE0C23CAF80030DD
:10266000A38943F04003A3814FF0FF30E9E7000066
:102670002DE9F04F98468B891B069DB007460D4605
:10268000144610D50B6973B94021FFF709FF286084
:10269000286130B90C233B604FF0FF301DB0BDE81E
:1026A000F08F40236B610023099320238DF829309C
:1026B000CDF80C803023DFF89C818DF82A304FF064
:1026C000010923469A4613F8012B0AB1252AF9D1AC
:1026D000BAEB040B0BD05B46224629463846FFF77F
:1026E0006BFF013000F0A780099A5A4409929AF8CA
:1026F0000030002B00F09F8000234FF0FF32CDE927
:1027000005230AF1010A049307938DF853301A93B5
:102710005446052214F8011B4E48FDF7A1FD049A0A
:10272000D8B9D00644BF20238DF85330110744BFD9
:102730002B238DF853309AF800302A2B15D0079AA6
:10274000544600204FF00A0C214611F8013B303B63
:10275000092B4BD9B0B1079214E0A0EB080309FA9A
:1027600003F313430493A246D2E7039B191D1B688E
:102770000391002BBBBF5B4242F002020793079319
:10278000B8BF049223782E2B0AD163782A2B32D13A
:10279000039B1A1D1B68039243EAE37302340593FB
:1027A000DFF8C0A0217803225046FDF759FD38B16B
:1027B000049BA0EB0A00402282401343013404939F
:1027C00014F8011B24488DF828100622FDF748FD57
:1027D000002836D0214B1BBB039B073323F0070394
:1027E00008330393099B334409936AE70CFB0232D5
:1027F0000C460120A8E700230134059319464FF049
:102800000A0C204610F8012B303A092A03D9002B74
:10281000C6D00591C4E70CFB012104460123F0E773
:1028200003AB00932A460E4B04A93846AFF3008051
:10283000421C0646D6D1AB895B063FF52DAF099801
:102840002CE703AB00932A46054B04A9384600F059
:1028500079F8EDE7D24C0008DC4C000800000000DD
:10286000B9250008D84C00082DE9F04716469846CF
:102870008A680B69DDF820909342B8BF1346336035
:1028800091F8432007460C460AB1013333602368B0
:10289000990642BF336802333360256815F0060598
:1028A00006D104F1190AE36832689B1AAB4226DCB0
:1028B00094F843302268003B18BF012392062BD4C2
:1028C00004F1430241463846C84701301ED0236810
:1028D000226903F00603042B02BFE5683368ED1A92
:1028E000A3680CBF25EAE57500259342C4BF9B1A77
:1028F000ED1800261A34B5421AD1002008E0012351
:10290000524641463846C847013003D14FF0FF30A8
:10291000BDE8F0870135C6E7E1185A1C302081F880
:102920004300224494F8451082F843100233C7E76D
:102930000123224641463846C8470130E6D00136D9
:10294000D9E700002DE9FF470F7E0C9E782F9146B6
:1029500080460C469A4601F1430207D8622F0AD8F6
:10296000002F00F0D180582F00F0B88004F142060B
:1029700084F842703AE0A7F16303152BF6D801A161
:1029800051F823F0DD290008F12900086D2900081D
:102990006D2900086D2900086D290008F12900083B
:1029A0006D2900086D2900086D2900086D290008AF
:1029B000EF2A00081B2A0008A92A00086D29000830
:1029C0006D290008112B00086D2900081B2A00083A
:1029D0006D2900086D290008B12A000833681A1D06
:1029E0001B68326004F1420684F8423001239CE007
:1029F00033682068191D3160060601D51D6803E0A3
:102A00004506FBD5B3F90050002D03DA2D236D42A6
:102A100084F8433058480A2311E0216833680806D7
:102A200053F8045B02D4490648BFADB26F2F524839
:102A3000336014BF0A230823002184F8431066681A
:102A4000A660002E05DB21682E4321F004012160E1
:102A50004BD01646B5FBF3F103FB1157C75D06F8E3
:102A6000017D2F46BB420D46F4D9082B0BD12368BC
:102A7000DF0708D5236961689942DEBF302306F875
:102A8000013C06F1FF36921B2261CDF800A04B46B7
:102A900003AA21464046FFF7E7FE01304AD14FF036
:102AA000FF3004B0BDE8F087236843F020032360C3
:102AB0003248782784F84570236831681F0651F83A
:102AC000045B02D45F0648BFADB23160D90744BF92
:102AD00043F0200323601DB11023ADE72648E9E74A
:102AE000236823F020032360F6E71646BDE733682A
:102AF00025686169181D30602E061B6801D51960B4
:102B000002E06806FBD51980002323611646BCE766
:102B100033681A1D32601E68626800213046FDF776
:102B20009FFB08B1801B606063682361002384F809
:102B30004330AAE72369324649464046D047013030
:102B4000ADD023689B0713D4E068039B9842B8BFBD
:102B50001846A6E70123324649464046D047013091
:102B60009DD00135E36803995B1AAB42F2DCEBE7D9
:102B7000002504F11906F5E7E34C0008F44C0008C1
:102B8000884210B501EB020402D98442234607D8DB
:102B9000431EA14208D011F8012B03F8012FF8E7DA
:102BA000024401468A4200D110BD13F8014D02F8DB
:102BB000014DF7E738B5064D0023044608462B6063
:102BC000FDF7A2FE431C02D12B6803B1236038BD80
:102BD0008C0300200A44914200F1FF3300D170477A
:102BE00010B511F8014B03F8014F9142F9D110BD16
:102BF0002DE9F041074614460D4621B9BDE8F041E4
:102C00001146FFF74DBC2AB9FFF7DEFB25462846E3
:102C1000BDE8F08100F01AF88442064602D8B4EB11
:102C2000500FF4D821463846FFF73AFC804608B9E1
:102C30004546ECE7B4422246294628BF3246FFF714
:102C4000C9FF29463846FFF7BFFBF1E751F8043CBE
:102C5000181F002BBCBF0B58C0187047F8B500BF39
:102C6000F8BC08BC9E467047F8B500BFF8BC08BC6D
:042C70009E467047C5
:102C74000000000000000000010203040607080928
:102C84000000000000000000000000000010101010
:102C94001010000010000000006C48480000000004
:102CA40000000000001414287C287C2850500000E8
:102CB40000103840403848701010000000205020A8
:102CC4000C7008140800000000000018202054486C
:102CD400340000000010101010000000000000007C
:102CE4000008081010101010100808000020201010
:102CF400101010101020200000107C102828000054
:102D0400000000000000101010FE10101000000061
:102D14000000000000000018103020000000000037
:102D2400007C0000000000000000000000000030F3
:102D340030000000000404080810102020400000A7
:102D44000038444444444444380000000030101027
:102D5400101010107C0000000038440408102044B7
:102D64007C000000003844041804044438000000C7
:102D7400000C141424447E040E000000003C2020A7
:102D84003804044438000000001C204078444444C3
:102D940038000000007C44040808081010000000FB
:102DA4000038444438444444380000000038444463
:102DB400443C040870000000000000303000003083
:102DC4003000000000000018180000183020000037
:102DD40000000C10608060100C0000000000000077
:102DE4007C007C00000000000000C02018041820B3
:102DF400C000000000001824040810003000000087
:102E04003844444C54544C4044380000003010289A
:102E140028287C44EE00000000F8444478444444EC
:102E2400F8000000003C44404040404438000000AA
:102E340000F0484444444448F000000000FC44507E
:102E440070504044FC000000007E222838282020D6
:102E540070000000003C4440404E444438000000F0
:102E640000EE44447C444444EE000000007C101016
:102E7400101010107C000000003C08080848484866
:102E84003000000000EE444850704844E600000062
:102E940000702020202024247C00000000EE6C6CB4
:102EA40054544444EE00000000EE64645454544C02
:102EB400EC0000000038444444444444380000001A
:102EC4000078242424382020700000000038444472
:102ED40044444444381C000000F8444444784844C2
:102EE400E200000000344C40380404645800000040
:102EF40000FE9210101010103800000000EE444440
:102F0400444444443800000000EE44442828281077
:102F14001000000000EE44445454545428000000AF
:102F240000C6442810102844C600000000EE4428BF
:102F34002810101038000000007C440810102044B1
:102F44007C00000000382020202020202020380091
:102F5400004020202010100808080000003808084D
:102F64000808080808083800001010284400000069
:102F7400000000000000000000000000000000FE4F
:102F840000100800000000000000000000000038ED
:102F9400443C44443E00000000C04058644444445F
:102FA400F80000000000003C4440404438000000A9
:102FB400000C04344C4444443E000000000000383B
:102FC400447C40403C000000001C207C2020202049
:102FD4007C000000000000364C4444443C043800AB
:102FE40000C0405864444444EE00000000100070E7
:102FF400101010107C000000001000780808080869
:103004000808700000C0405C48705048DC000000B4
:1030140000301010101010107C000000000000E8B8
:1030240054545454FE000000000000D86444444446
:10303400EE0000000000003844444444380000001E
:10304400000000D8644444447840E00000000036A6
:103054004C4444443C040E000000006C302020200A
:103064007C0000000000003C443804447800000068
:103074000000207C202020221C000000000000CC46
:103084004444444C36000000000000EE4444282828
:1030940010000000000000EE4454545428000000C6
:1030A400000000CC48303048CC000000000000EEA6
:1030B40044242818101078000000007C4810204494
:1030C4007C000000000810101010201010100800E0
:1030D400001010101010101010100000002010101C
:1030E40010100810101020000000000000245800E8
:1030F40000000000000000000000000000000000CC
:1031040000000000000000000000000000000000BB
:1031140000000000000000000000000000000000AB
:10312400000000000000000000000000000000009B
:10313400000000000000000000000000000000008B
:1031440000000380000380000380000380000380EC
:10315400000380000380000380000380000100005E
:103164000100000000000000000380000380000054
:10317400000000000000000000000000000000004B
:10318400000000000000000000000000000E7000BD
:103194000E70000E700004200004200004200004BF
:1031A40020000000000000000000000000000000FB
:1031B400000000000000000000000000000000000B
:1031C40000000000000000000000000000000000FB
:1031D40000000660000660000660000660000660ED
:1031E400003FF8003FF8000660000CC0003FF80004
:1031F4003FF8000CC0000CC0000CC0000CC0000C58
:10320400C0000000000000000000000000000000FA
:103214000000000000000001800001800007B000F1
:103224000FF0001870001870001C00000F800007D9
:10323400E00000F0001830001C30001C70001FE09B
:10324400001BC0000180000180000180000180009B
:10325400000000000000000000000000000000006A
:1032640000000780000FC0001CE000186000186018
:10327400001CE0000FF80007E0001FF00007380012
:1032840006180006180007380003F00001E00000EB
:10329400000000000000000000000000000000002A
:1032A400000000000000000000000000000000001A
:1032B40003F00007F0000C60000C00000C00000696
:1032C40000000700000F9C001DFC0018F00018709F
:1032D400000FFC0007DC00000000000000000000FC
:1032E40000000000000000000000000000000000DA
:1032F4000000000000038000038000038000010040
:1033040000010000010000010000000000000000B6
:1033140000000000000000000000000000000000A9
:103324000000000000000000000000000000000099
:103334000000000000000000000000180000380039
:1033440000700000F00000E00000E00001C0000197
:10335400C00001C00001C00001C00001C00000E0C5
:103364000000E00000700000700000380000180049
:103374000000000000000000000000000000000049
:1033840000001800001C00000E00000E00000700E2
:103394000007000003800003800003800003800016
:1033A4000380000380000700000700000F00000EE8
:1033B40000001C00001800000000000000000000D5
:1033C40000000000000000000000018000018000F7
:1033D4000180001DB8001FF80007E00003C00003CF
:1033E400C00006600006600000000000000000004D
:1033F40000000000000000000000000000000000C9
:1034040000000000000000000000000000000000B8
:103414000000000000000000018000018000018025
:10342400000180000180003FFC003FFC000180009F
:103434000180000180000180000180000000000084
:103444000000000000000000000000000000000078
:103454000000000000000000000000000000000068
:103464000000000000000000000000000000000058
:10347400000000000000000000000000000000E068
:103484000000C00001C000018000018000030000B2
:103494000300000000000000000000000000000025
:1034A4000000000000000000000000000000000018
:1034B400000000000000001FF8001FF800000000DA
:1034C40000000000000000000000000000000000F8
:1034D40000000000000000000000000000000000E8
:1034E40000000000000000000000000000000000D8
:1034F40000000000000000000000000000000000C8
:10350400000000000000000000000000000003C0F4
:103514000003C00003C00000000000000000000021
:10352400000000000000000000000000001800007F
:1035340018000038000030000070000060000060D7
:103544000000C00000C000018000018000030000F2
:103554000300000600000600000E00000C00001C22
:103564000000180000180000000000000000000027
:103574000000000000000000000003C00007E0009D
:103584000C30000C30001818001818001818001817
:1035940018001818001818001818000C30000C3007
:1035A4000007E00003C0000000000000000000006D
:1035B4000000000000000000000000000000000007
:1035C40000000080000780001F80001D8000018033
:1035D4000001800001800001800001800001800062
:1035E4000180000180000180001FF8001FF8000026
:1035F40000000000000000000000000000000000C7
:103604000000000000000000000007C0001FF000E0
:103614003830003018003018000018000030000066
:10362400600001C0000380000600000C00001800C8
:10363400003FF8003FF80000000000000000000018
:103644000000000000000000000000000000000076
:10365400000003C0000FE0000C70000030000030D8
:103664000000600003C00003E000007000001800C8
:103674000018000018001838001FF0000FC00000E8
:103684000000000000000000000000000000000036
:103694000000000000000000000000E00001E00065
:1036A40001E0000360000660000660000C60000C8E
:1036B40060001860003060003FF8003FF8000060D0
:1036C4000003F80003F80000000000000000000000
:1036D40000000000000000000000000000000000E6
:1036E40000001FF0001FF000180000180000180070
:1036F400001BC0001FF0001C300000180000180060
:103704000018000018003030003FF0000FC0000027
:1037140000000000000000000000000000000000A5
:103724000000000000000000000000F80003F800A2
:103734000700000E00000C00001800001BC0001F52
:10374400F0001C30001818001818001818000C3865
:10375400000FF00003E00000000000000000000083
:103764000000000000000000000000000000000055
:1037740000001FF8001FF800181800183800003067
:103784000000300000700000600000600000E000F5
:1037940000C00000C00001C00001800001800000E2
:1037A4000000000000000000000000000000000015
:1037B4000000000000000000000007E0000FF0001F
:1037C4001C38001818001818000C300007E0000717
:1037D400E0000C30001818001818001818001C38E5
:1037E400000FF00007E000000000000000000000EF
:1037F40000000000000000000000000000000000C5
:10380400000007C0000FF0001C3000181800181842
:10381400001818000C38000FF80003D80000180036
:1038240000300000700000E0001FC0001F00000016
:103834000000000000000000000000000000000084
:103844000000000000000000000000000000000074
:1038540000000000000003C00003C00003C000001B
:10386400000000000000000000000000000003C091
:103874000003C00003C000000000000000000000BE
:103884000000000000000000000000000000000034
:10389400000000000000000000000000000000F034
:1038A4000000F00000F00000000000000000000034
:1038B40000000000E00001C000018000018000035E
:1038C40000000200000000000000000000000000F2
:1038D40000000000000000000000000000000000E4
:1038E400001C00003C0000F00003C0000F00003C7E
:1038F4000000F000003C00000F000003C00000F0D6
:1039040000003C00001C000000000000000000005B
:1039140000000000000000000000000000000000A3
:103924000000000000000000000000000000000093
:10393400007FFC007FFC000000000000007FFC0012
:103944007FFC0000000000000000000000000000F8
:103954000000000000000000000000000000000063
:103964000000000000000000000000000000000053
:103974007000007800001E000007800001E00000D5
:103984007800001E0000780001E0000780001E009F
:10399400007800007000000000000000000000003B
:1039A4000000000000000000000000000000000013
:1039B400000000000007C0000FE00018700018307D
:1039C4000018300000700000E00003C00003800015
:1039D40003000000000000000007000007000000D2
:1039E40000000000000000000000000000000000D3
:1039F4000000000000000000000003E00007F000E9
:103A04000E38000C180018780018F80019D800199E
:103A1400980019980019980018F8001878001800F0
:103A2400000C00000E180007F80003E0000000007E
:103A34000000000000000000000000000000000082
:103A440000000000001F80001FC00001C0000360D0
:103A5400000360000630000630000C30000FF80050
:103A64001FF800180C00300C00FC7F00FC7F0000E5
:103A74000000000000000000000000000000000042
:103A8400000000000000000000000000007FE000D3
:103A94007FF0001838001818001818001838001F94
:103AA400F0001FF800181C00180C00180C00180C6B
:103AB400007FF8007FF0000000000000000000001C
:103AC40000000000000000000000000000000000F2
:103AD400000000000003EC000FFC001C1C00180C8C
:103AE40000300C00300000300000300000300000D6
:103AF400300000180C001C1C000FF80003F000003C
:103B040000000000000000000000000000000000B1
:103B1400000000000000000000000000007FC00062
:103B24007FF000183800181800180C00180C001842
:103B34000C00180C00180C00180C00181800183889
:103B4400007FF0007FE000000000000000000000A3
:103B54000000000000000000000000000000000061
:103B640000000000007FF8007FF800181800181803
:103B7400001998001980001F80001F800019800020
:103B84001998001818001818007FF8007FF8000032
:103B94000000000000000000000000000000000021
:103BA400000000000000000000000000003FFC00D6
:103BB4003FFC000C0C000C0C000CCC000CC0000FE3
:103BC400C0000FC0000CC0000CC0000C00000C00B2
:103BD400003FC0003FC000000000000000000000E3
:103BE40000000000000000000000000000000000D1
:103BF400000000000003EC000FFC001C1C00180C6B
:103C040000300C0030000030000030FE0030FE00B8
:103C1400300C00380C001C1C000FFC0003F00000EA
:103C24000000000000000000000000000000000090
:103C3400000000000000000000000000007E7E0084
:103C44007E7E001818001818001818001818001F95
:103C5400F8001FF800181800181800181800181891
:103C6400007E7E007E7E0000000000000000000058
:103C74000000000000000000000000000000000040
:103C840000000000001FF8001FF800018000018000
:103C9400000180000180000180000180000180009B
:103CA4000180000180000180001FF8001FF800005F
:103CB4000000000000000000000000000000000000
:103CC4000000000000000000000000000007FE00EB
:103CD40007FE00003000003000003000003000001B
:103CE4003000303000303000303000303000306090
:103CF400003FE0000F800000000000000000000012
:103D040000000000000000000000000000000000AF
:103D140000000000007F3E007F3E00183000186065
:103D24000018C0001980001B80001FC0001CE000A8
:103D34001870001830001838007F1F007F1F000023
:103D4400000000000000000000000000000000006F
:103D5400000000000000000000000000007F800060
:103D64007F80000C00000C00000C00000C00000C14
:103D740000000C00000C0C000C0C000C0C000C0CD3
:103D8400007FFC007FFC0000000000000000000039
:103D9400000000000000000000000000000000001F
:103DA4000000000000F00F00F81F00381C003C3C2D
:103DB400003C3C00366C00366C0033CC0033CC0045
:103DC400318C00300C00300C00FE7F00FE7F0000C0
:103DD40000000000000000000000000000000000DF
:103DE4000000000000000000000000000078FE0059
:103DF40078FE001C18001E18001F18001B18001B5A
:103E0400980019D80018D80018F800187800183845
:103E1400007F18007F180000000000000000000070
:103E2400000000000000000000000000000000008E
:103E3400000000000003C0000FF0001C3800181838
:103E440000381C00300C00300C00300C00300C002A
:103E5400381C001818001C38000FF00003C00000C4
:103E6400000000000000000000000000000000004E
:103E7400000000000000000000000000003FF0000F
:103E84003FF8000C1C000C0C000C0C000C0C000C7B
:103E940018000FF8000FE0000C00000C00000C00EC
:103EA400003FC0003FC00000000000000000000010
:103EB40000000000000000000000000000000000FE
:103EC400000000000003C0000FF0001C38001818A8
:103ED40000381C00300C00300C00300C00300C009A
:103EE400381C001818001C38000FF00007C0000729
:103EF400CC000FFC000C38000000000000000000A3
:103F0400000000000000000000000000007FE0004E
:103F14007FF0001838001818001818001838001F0F
:103F2400F0001FC00018E0001870001830001838A6
:103F3400007F1E007F0E0000000000000000000053
:103F4400000000000000000000000000000000006D
:103F5400000000000007D8000FF8001C38001818F3
:103F6400001818001E00000FC00003F000007800C5
:103F74001818001818001C38001FF0001BE000007F
:103F8400000000000000000000000000000000002D
:103F9400000000000000000000000000003FFC00E2
:103FA4003FFC00318C00318C00318C00318C0001DD
:103FB40080000180000180000180000180000180F8
:103FC400000FF0000FF000000000000000000000EF
:103FD40000000000000000000000000000000000DD
:103FE40000000000007E7E007E7E00181800181875
:103FF40000181800181800181800181800181800CD
:104004001818001818000C30000FF00003C000004E
:10401400000000000000000000000000000000009C
:10402400000000000000000000000000007F7F008E
:104034007F7F00180C000C18000C18000C180006E8
:10404400300006300003600003600003600001C01C
:104054000001C0000080000000000000000000001B
:10406400000000000000000000000000000000004C
:104074000000000000FE3F80FE3F80300600300656
:104084000030860019CC0019CC001B6C001B6C009E
:104094001E7C000E38000E38000C18000C180000AE
:1040A400000000000000000000000000000000000C
:1040B400000000000000000000000000007E7E0000
:1040C4007E7E001818000C300006600003C000015A
:1040D400800001800003C0000660000C3000181846
:1040E400007E7E007E7E00000000000000000000D4
:1040F40000000000000000000000000000000000BC
:1041040000000000007C7E007C7E001818000C304B
:104114000006600006600003C0000180000180000A
:104124000180000180000180000FF0000FF000000A
:10413400000000000000000000000000000000007B
:10414400000000000000000000000000001FF80054
:104154001FF80018180018300018600018C000017B
:1041640080000300000618000C180018180030180E
:10417400003FF8003FF800000000000000000000CD
:10418400000000000000000000000000000000002B
:10419400000001F00001F0000180000180000180B6
:1041A4000001800001800001800001800001800086
:1041B4000180000180000180000180000180000175
:1041C400800001F00001F000000000000000000089
:1041D400000000001800001800001C00000C000083
:1041E4000E000006000006000003000003000001AA
:1041F400800001800000C00000C00000600000607A
:1042040000007000003000003800001800001800A2
:10421400000000000000000000000000000000009A
:1042240000000F80000F80000180000180000180E9
:1042340000018000018000018000018000018000F5
:1042440001800001800001800001800001800001E4
:1042540080000F80000F80000000000000000000BC
:104264000000000000000000800001C00003E00026
:104274000770000630000C1800180C001004000031
:10428400000000000000000000000000000000002A
:10429400000000000000000000000000000000001A
:1042A400000000000000000000000000000000000A
:1042B40000000000000000000000000000000000FA
:1042C40000000000000000000000000000000000EA
:1042D40000000000000000000000000000000000DA
:1042E4000000000000000000000000000000FFFFCC
:1042F40000FFFF0000000003000003800000E00056
:104304000060000000000000000000000000000049
:104314000000000000000000000000000000000099
:104324000000000000000000000000000000000089
:104334000000000000000000000000000000000079
:1043440000000000000000000000000000000FC09A
:10435400001FE00000300000300007F0001FF000F4
:104364003830003030003070001FFC000FBC0000FB
:104374000000000000000000000000000000000039
:104384000000000000000000000078000078000039
:104394001800001800001BE0001FF8001C1800188B
:1043A4000C00180C00180C00180C00180C001C1839
:1043B400007FF8007BE00000000000000000000027
:1043C40000000000000000000000000000000000E9
:1043D400000000000000000000000000000003ECEA
:1043E400000FFC001C1C00380C00300C00300000D6
:1043F400300000380C001C1C000FF80003F0000013
:1044040000000000000000000000000000000000A8
:1044140000000000000000000000007800007800A8
:1044240000180000180007D8001FF80018380030E2
:1044340018003018003018003018003018001838F0
:10444400001FFE0007DE0000000000000000000066
:104454000000000000000000000000000000000058
:10446400000000000000000000000000000007E061
:10447400001FF800181800300C003FFC003FFC003F
:10448400300000300000180C001FFC0007F0000092
:104494000000000000000000000000000000000018
:1044A4000000000000000000000001FC0003FC000C
:1044B4000600000600003FF8003FF8000600000672
:1044C40000000600000600000600000600000600CA
:1044D400003FF0003FF0000000000000000000007A
:1044E40000000000000000000000000000000000C8
:1044F400000000000000000000000000000007DED3
:10450400001FFE0018380030180030180030180062
:104514003018003018001838001FF80007D80000C1
:1045240018000018000038000FF0000FC000000051
:104534000000000000000000000078000078000087
:104544001800001800001BE0001FF0001C380018C1
:10455400180018180018180018180018180018184F
:10456400007E7E007E7E000000000000000000004F
:104574000000000000000000000000000000000037
:1045840000000180000180000000000000001F8086
:10459400001F800001800001800001800001800074
:1045A4000180000180000180003FFC003FFC00000E
:1045B40000000000000000000000000000000000F7
:1045C4000000000000000000000000C00000C00067
:1045D4000000000000001FF0001FF0000030000089
:1045E40030000030000030000030000030000030A7
:1045F4000000300000300000300000300000700087
:104604001FE0001F80000000000000000000000008
:1046140000003C00003C00000C00000C00000CF802
:10462400000CF8000CC0000D80000F80000F00008B
:104634000F80000DC0000CE0003C7C003C7C0000BE
:104644000000000000000000000000000000000066
:10465400000000000000000000001F80001F800018
:1046640001800001800001800001800001800001C0
:104674008000018000018000018000018000018031
:10468400003FFC003FFC00000000000000000000B0
:104694000000000000000000000000000000000016
:1046A4000000000000000000000000000000F77897
:1046B40000FFFC0039CC00318C00318C00318C00BF
:1046C400318C00318C00318C00FDEF00FDEF0000D7
:1046D40000000000000000000000000000000000D6
:1046E40000000000000000000000000000000000C6
:1046F4000000000000007BE0007FF0001C38001880
:10470400180018180018180018180018180018189D
:10471400007E7E007E7E000000000000000000009D
:104724000000000000000000000000000000000085
:10473400000000000000000000000000000003C0B2
:10474400000FF0001C3800381C00300C00300C0046
:10475400300C00381C001C38000FF00003C00000AF
:104764000000000000000000000000000000000045
:104774000000000000000000000000000000000035
:104784000000000000007BE0007FF8001C18001807
:104794000C00180C00180C00180C00180C001C1845
:1047A400001FF8001BE000180000180000180000AB
:1047B4007F00007F000000000000000000000000F7
:1047C400000000000000000000000000000007DE00
:1047D400001FFE0018380030180030180030180090
:1047E4003018003018001838001FF80007D80000EF
:1047F400180000180000180000FE0000FE00000071
:1048040000000000000000000000000000000000A4
:104814000000000000003E78003EFC0007CC0007CA
:104824000000060000060000060000060000060066
:10483400003FF0003FF00000000000000000000016
:104844000000000000000000000000000000000064
:10485400000000000000000000000000000007F855
:10486400000FF8001818001818001F80000FF0003F
:1048740000F8001818001838001FF0001FE00000AE
:104884000000000000000000000000000000000024
:10489400000000000000000000000C00000C0000FC
:1048A4000C00000C00003FF0003FF0000C00000C76
:1048B40000000C00000C00000C00000C00000C1C9C
:1048C4000007FC0003F000000000000000000000EE
:1048D40000000000000000000000000000000000D4
:1048E40000000000000000000000000000007878D4
:1048F4000078780018180018180018180018180004
:104904001818001818001838000FFE0007DE000001
:104914000000000000000000000000000000000093
:104924000000000000000000000000000000000083
:104934000000000000007C3E007C3E0018180018B7
:1049440018000C30000C300006600006600007E020
:104954000003C00003C000000000000000000000CD
:104964000000000000000000000000000000000043
:104974000000000000000000000000000000783C7F
:1049840000783C003118003398003398001AB000C6
:104994001EF0001EF0001C60000C60000C600000A3
:1049A4000000000000000000000000000000000003
:1049B40000000000000000000000000000000000F3
:1049C4000000000000003E7C003E7C000C3000062D
:1049D400600003C00001800003C0000660000C30CA
:1049E400003E7C003E7C000000000000000000004F
:1049F40000000000000000000000000000000000B3
:104A040000000000000000000000000000007E1F05
:104A1400007E1F00180C000C18000C180006300053
:104A240006300003600003E00001C00000C0000184
:104A340080000180000300003FC0003FC000000070
:104A44000000000000000000000000000000000062
:104A54000000000000001FF8001FF80018300018C4
:104A6400600000C0000180000300000618000C185C
:104A7400001FF8001FF80000000000000000000004
:104A84000000000000000000000000000000000022
:104A9400000000E00001E0000180000180000180CE
:104AA40000018000018000018000038000070000F5
:104AB400038000018000018000018000018000016A
:104AC400800001E00000E0000000000000000000A1
:104AD40000000000000000000000018000018000D0
:104AE400018000018000018000018000018000013C
:104AF40080000180000180000180000180000180AD
:104B0400000180000180000180000180000180001C
:104B14000000000000000000000000000000000091
:104B24000000070000078000018000018000018070
:104B34000001800001800001800001C00000E0004D
:104B440001C000018000018000018000018000019B
:104B54008000078000070000000000000000000043
:104B64000000000000000000000000000000000041
:104B74000000000000000000000000000E00001F04
:104B840018003BB80031F00000E000000000000015
:104B94000000000000000000000000000000000011
:104BA40000000000000000000000000068E8A828E1
:104BB400084888C8CF0300C130ED0464031281E8BB
:104BC4000385107ACB05392C003402F70120EA0260
:104BD4000000C0011BC10101C5023030C701B73656
:104BE40001483A0155B6020AA2F20100260101E089
:104BF4000F0F2A28080E0854A9430A0F00000000CA
:104C0400E10F0015170711062B563C05100F3F3F07
:104C14000F2B040000013F2A04000000EF11782943
:104C240000B102011200546F7563682050616E6513
:104C34006C205061696E74004578616D706C65001C
:104C44004D61747269782E004D4154524958204187
:104C54004444524553533A00416E00426E00436E41
:104C640000446E00456E00466E00446976696465D2
:104C7400720043002020202020202020546F7563E0
:104C8400682063726F73736861697220746F206344
:104C9400616C69627261746500202020494C493955
:104CA400333431204C4344004144432D3E58203D8D
:104CB40020000A4144432D3E59203D20000A0A0A9F
:104CC400202050726573732054532E2E2E00232DF2
:104CD400302B2000686C4C00656667454647003001
:104CE400313233343536373839414243444546004E
:104CF400303132333435363738396162636465664E
:044D040000000000AB
:084D080058B5FF7F0100000017
:044D1000B5010008E1
:044D14009101000801
:104D18000024F4000100000010000000E0FF000083
:104D2800000000002400002001000000842C00087E
:104D380007000C00F8300008110018004001F000CE
:104D4800040101081E001E0022011E00A000D2005E
:104D58008100A200930396000D025C03F0C60200D6
:104D6800E8F9FFFFB80D9AFF30FDFFFF702402003D
:104D780080D7B7FFB85408006C000020000000007E
:104D880054020020BC020020240300200000000080
:104D9800000000000000000000000000000000000B
:104DA80000000000000000000000000000000000FB
:104DB80000000000000000000000000000000000EB
:084DC8000000000000000000E3
:040000050800095D89
:00000001FF
